:100000000C9468000C9485000C9485000C94850079
:100010000C9485000C9485000C9485000C9485004C
:100020000C9485000C9485000C9485000C9485003C
:100030000C9485000C9485000C9485000C9485002C
:100040000C94C2000C9485000C9428010C9485003B
:100050000C9485000C9485000C9485000C9485000C
:100060000C9485000C94850048454C4C4F20574F0C
:10007000524C440D0A00303132333435363738397A
:100080004142434445460064656275673A20007406
:10009000696D65203A2025640D0A000D0A0D737004
:1000A000696B655F333238705F636C6F636B2073AD
:1000B00074617274696E672E2E2E0D0A00696E705F
:1000C00075743D25630D0A006D61696E3A2000006C
:1000D00011241FBECFEFD8E0DEBFCDBF21E0A6E0E8
:1000E000B1E001C01D92A632B207E1F711E0A0E035
:1000F000B1E0ECEAFDE002C005900D92A630B10738
:10010000D9F70E9449020C94D4060C94000084B5DF
:10011000836084BD8DE787BD85B5836085BD81E043
:1001200080936E0008952FB7F89460910701709145
:1001300008018091090190910A012FBF08953FB7EE
:10014000F89480910B0190910C01A0910D01B09158
:100150000E0126B5A89B05C02F3F19F00196A11DE1
:10016000B11D3FBF6627782F892F9A2F620F711D0F
:10017000811D911D43E0660F771F881F991F4A95C7
:10018000D1F708951F920F920FB60F9211242F935B
:100190003F938F939F93AF93BF938091070190916B
:1001A0000801A0910901B0910A013091060126E0F1
:1001B000230F2D3720F40296A11DB11D05C029E89B
:1001C000230F0396A11DB11D209306018093070103
:1001D00090930801A0930901B0930A0180910B014B
:1001E00090910C01A0910D01B0910E010196A11DFD
:1001F000B11D80930B0190930C01A0930D01B0935E
:100200000E01BF91AF919F918F913F912F910F90D0
:100210000FBE0F901F9018951092C50023E32093F6
:10022000C400E1ECF0E02081206820832081286177
:100230002083E2ECF0E020812660208390931B0174
:1002400080931A0160E070E080E791E00C948102F5
:100250001F920F920FB60F9211242F933F934F933B
:100260005F936F937F938F939F93AF93BF93EF931E
:10027000FF938091C600E0911A01F0911B01309725
:1002800009F00995FF91EF91BF91AF919F918F91E7
:100290007F916F915F914F913F912F910F900FBE82
:1002A0000F901F90189590931B0180931A01089549
:1002B00090931901809318010895FC01819188237E
:1002C00039F09091C00095FFFCCF8093C600F6CF27
:1002D00008959091C00095FFFCCF8093C6000895CB
:1002E000CF93C82F0E946901E0911801F091190184
:1002F000309711F08C2F099580E090E0CF91089510
:10030000E82FE295EF70F0E0EA58FF4FE49190910A
:10031000C00095FFFCCFE093C6008F70E82FF0E09F
:10032000EA58FF4FE4918091C00085FFFCCFE09335
:10033000C6000895EF92FF920F931F93CF93DF9320
:100340008C017B01EC01CE01801B910B8E159F056A
:1003500024F489910E948001F6CFDF91CF911F9103
:100360000F91FF90EF900895CF93DF93CDB7DEB755
:10037000AE01475F5F4F6F81788580911E0190913C
:100380001F010E94CC02DF91CF91089588E690E092
:100390009F938F9387E890E09F938F930E94B4017F
:1003A0000F900F900F900F9093E48091C00085FD07
:1003B00003C09093C600F9CF2FEF84E39CE0215057
:1003C00080409040E1F700C0000080E58093C600C7
:1003D0002FEF84E39CE0215080409040E1F700C083
:1003E000000088E48093C6002FEF84E39CE0215056
:1003F00080409040E1F700C0000008958093130111
:100400001F928F938DEB90E09F938F9388EC90E0F9
:100410009F938F930E94B4010F900F900F900F90B5
:100420000F900F900895CF92DF92EF92FF926B01A1
:100430007C010E9493006C0D7D1D8E1D9F1D60939D
:100440000F01709310018093110190931201FF909E
:10045000EF90DF90CF9008950F931F930E94930029
:1004600000910F01109110012091110130911201A2
:10047000601771078207930740F068EE73E080E031
:1004800090E00E94130281E001C080E01F910F9173
:1004900008958EEF91E00E940C010E9487008BE985
:1004A00090E09F938F9388EC90E09F938F930E94AE
:1004B000B40178940F900F900F900F900FE810E018
:1004C000C8ECD0E00E942C028823E1F30E94930044
:1004D0009F938F937F936F931F930F93DF93CF938C
:1004E0000E94B40168EE73E080E090E00E94130285
:1004F0008DB79EB708960FB6F8949EBF0FBE8DBFFE
:10050000E1CF0F931F93CF93DF93EC018B01009703
:1005100031F46115710519F480E090E038C06EE0A7
:1005200070E081E090E00E94AD04FC010097A1F32F
:1005300080E883830115110571F01387028781E834
:10054000838380911C0190911D01892B21F4F093EC
:100550001D01E0931C012097C9F0D187C0878381DA
:100560008260838380911E0190911F01892B71F419
:10057000F0931F01E0931E018091200190912101D1
:10058000892B21F4F0932101E0932001CF01DF9129
:10059000CF911F910F910895CF93DF93EC018B8141
:1005A00088608B83CE010E94DB022B81277F2B8307
:1005B000DF91CF910895ACE0B0E0E1EEF2E00C9471
:1005C0009D067C016B018A01FC01178216828381E2
:1005D00081FFBDC1CE0101964C01F7019381F60167
:1005E00093FD859193FF81916F01882309F4ABC13D
:1005F000853239F493FD859193FF81916F018532A6
:1006000029F4B70190E00E940D06E7CF512C312C60
:1006100020E02032A0F48B3269F030F4803259F0BF
:10062000833269F420612CC08D3239F0803339F483
:10063000216026C02260246023C0286021C027FDDD
:1006400027C030ED380F3A3078F426FF06C0FAE0C4
:100650005F9E300D1124532E13C08AE0389E300D5A
:100660001124332E20620CC08E3221F426FD6BC182
:10067000206406C08C3611F4206802C0883641F42C
:10068000F60193FD859193FF81916F018111C1CF97
:10069000982F9F7D9554933028F40C5F1F4FFFE3F4
:1006A000F9830DC0833631F0833771F0833509F05B
:1006B0005BC022C0F801808189830E5F1F4F4424F4
:1006C0004394512C540115C03801F2E06F0E711C97
:1006D000F801A080B18026FF03C0652D70E002C044
:1006E0006FEF7FEFC5012C870E9402062C0183016A
:1006F0002C852F77222E17C03801F2E06F0E711C67
:10070000F801A080B18026FF03C0652D70E002C013
:100710006FEF7FEFC5012C870E94F0052C012C851F
:100720002068222E830123FC1BC0832D90E04816F5
:100730005906B0F4B70180E290E00E940D063A94A9
:10074000F4CFF50127FC859127FE81915F01B70168
:1007500090E00E940D0631103A94F1E04F1A5108D2
:100760004114510471F7E5C0843611F0893639F52A
:10077000F80127FF07C060817181828193810C5F3E
:100780001F4F08C060817181882777FD8095982F61
:100790000E5F1F4F2F76B22E97FF09C09095809560
:1007A000709561957F4F8F4F9F4F2068B22E2AE042
:1007B00030E0A4010E943F06A82EA81844C0853747
:1007C00029F42F7EB22E2AE030E025C0F22FF97FE7
:1007D000BF2E8F36C1F018F4883579F0B4C0803759
:1007E00019F0883721F0AFC02F2F2061B22EB4FE50
:1007F0000DC08B2D8460B82E09C024FF0AC09F2F26
:100800009660B92E06C028E030E005C020E130E057
:1008100002C020E132E0F801B7FE07C060817181BB
:10082000828193810C5F1F4F06C06081718180E0DF
:1008300090E00E5F1F4FA4010E943F06A82EA8184B
:10084000FB2DFF77BF2EB6FE0BC02B2D2E7FA514E0
:1008500050F4B4FE0AC0B2FC08C02B2D2E7E05C099
:100860007A2C2B2D03C07A2C01C0752C24FF0DC0CF
:10087000FE01EA0DF11D8081803311F4297E09C04B
:1008800022FF06C07394739404C0822F867809F007
:10089000739423FD13C020FF06C05A2C731418F460
:1008A000530C5718732C731468F4B70180E290E06E
:1008B0002C870E940D0673942C85F5CF731410F4C9
:1008C000371801C0312C24FF12C0B70180E390E03B
:1008D0002C870E940D062C8522FF17C021FF03C024
:1008E00088E590E002C088E790E0B7010CC0822F55
:1008F000867859F021FD02C080E201C08BE227FD1D
:100900008DE2B70190E00E940D06A51438F4B701FE
:1009100080E390E00E940D065A94F7CFAA94F40168
:10092000EA0DF11D8081B70190E00E940D06A11033
:10093000F5CF332009F451CEB70180E290E00E9458
:100940000D063A94F6CFF7018681978102C08FEFAA
:100950009FEF2C96E2E10C94B9060F931F93CF936F
:10096000DF93869F8001879F100D969F100D1124A5
:10097000C8010E94C904EC01009729F0A80160E0B9
:1009800070E00E94FB05CE01DF91CF911F910F9186
:100990000895CF93DF938230910510F482E090E0C8
:1009A000E0912401F091250120E030E0A0E0B0E0EA
:1009B000309739F14081518148175907B8F04817ED
:1009C000590771F482819381109729F013969C93B3
:1009D0008E9312972CC0909325018093240127C0F9
:1009E0002115310531F04217530718F0A901DB0139
:1009F00001C0EF019A01BD01DF010280F381E02D0A
:100A0000D7CF21153105F9F0281B390B24303105DA
:100A100080F48A819B816115710521F0FB0193832C
:100A2000828304C09093250180932401FE013296B5
:100A300044C0FE01E20FF31F8193919322503109CC
:100A4000398328833AC02091220130912301232B3E
:100A500041F420910201309103013093230120934E
:100A6000220120910001309101012115310541F44D
:100A70002DB73EB74091040150910501241B350B61
:100A8000E0912201F0912301E217F307A0F42E1B5D
:100A90003F0B2817390778F0AC014E5F5F4F2417E2
:100AA000350748F04E0F5F1F5093230140932201FA
:100AB0008193919302C0E0E0F0E0CF01DF91CF910C
:100AC0000895CF93DF93009709F487C0FC01329714
:100AD00013821282C0912401D0912501209781F4C4
:100AE00020813181280F391F8091220190912301AB
:100AF0008217930779F5F0932301E09322016DC0EB
:100B0000DE0120E030E0AE17BF0750F412964D91A1
:100B10005C9113979D014115510509F1DA01F3CF5D
:100B2000B383A28340815181840F951F8A179B074D
:100B300071F48D919C911197840F951F029691836A
:100B4000808312968D919C911397938382832115B4
:100B5000310529F4F0932501E09324013EC0D90129
:100B60001396FC93EE9312974D915D91A40FB51FD0
:100B7000EA17FB0779F480819181840F951F029613
:100B8000D90111969C938E938281938113969C93A5
:100B90008E931297E0E0F0E08A819B81009719F034
:100BA000FE01EC01F9CFCE01029628813981820F36
:100BB000931F20912201309123012817390769F4EE
:100BC000309729F4109225011092240102C013825B
:100BD0001282D0932301C0932201DF91CF91089517
:100BE000FC010590615070400110D8F780959095F8
:100BF0008E0F9F1F0895DC0101C06D93415050403E
:100C0000E0F70895FC016150704001900110D8F7A1
:100C1000809590958E0F9F1F08950F931F93CF93EC
:100C2000DF93182F092FEB018B8181FD03C08FEF1C
:100C30009FEF20C082FF10C04E815F812C813D81DB
:100C4000421753077CF4E881F9819F012F5F3F4FE2
:100C500039832883108306C0E885F985812F09959B
:100C6000892B29F72E813F812F5F3F4F3F832E83B2
:100C7000812F902FDF91CF911F910F910895FA014D
:100C8000AA27283051F1203181F1E8946F936E7FCB
:100C90006E5F7F4F8F4F9F4FAF4FB1E03ED0B4E0BC
:100CA0003CD0670F781F891F9A1FA11D680F791FFD
:100CB0008A1F911DA11D6A0F711D811D911DA11D0E
:100CC00020D009F468943F912AE0269F112430191E
:100CD000305D3193DEF6CF010895462F4770405DB9
:100CE0004193B3E00FD0C9F7F6CF462F4F70405D68
:100CF0004A3318F0495D31FD4052419302D0A9F7C3
:100D0000EACFB4E0A6959795879577956795BA95BC
:100D1000C9F700976105710508959B01AC010A2E82
:100D200006945795479537952795BA95C9F7620F59
:100D3000731F841F951FA01D08952F923F924F92FD
:100D40005F926F927F928F929F92AF92BF92CF925B
:100D5000DF92EF92FF920F931F93CF93DF93CDB764
:100D6000DEB7CA1BDB0B0FB6F894DEBF0FBECDBFDC
:100D700009942A88398848885F846E847D848C84AD
:100D80009B84AA84B984C884DF80EE80FD800C81B6
:100D90001B81AA81B981CE0FD11D0FB6F894DEBF99
:0C0DA0000FBECDBFED010895F894FFCF09
:060DAC00000026012000FA
:00000001FF
